{"abi":[{"type":"constructor","inputs":[],"stateMutability":"nonpayable"},{"type":"function","name":"DOMAIN_SEPARATOR","inputs":[],"outputs":[{"name":"","type":"bytes32","internalType":"bytes32"}],"stateMutability":"view"},{"type":"function","name":"MINIMUM_LIQUIDITY","inputs":[],"outputs":[{"name":"","type":"uint256","internalType":"uint256"}],"stateMutability":"view"},{"type":"function","name":"allowance","inputs":[{"name":"","type":"address","internalType":"address"},{"name":"","type":"address","internalType":"address"}],"outputs":[{"name":"","type":"uint256","internalType":"uint256"}],"stateMutability":"view"},{"type":"function","name":"approve","inputs":[{"name":"spender","type":"address","internalType":"address"},{"name":"amount","type":"uint256","internalType":"uint256"}],"outputs":[{"name":"","type":"bool","internalType":"bool"}],"stateMutability":"nonpayable"},{"type":"function","name":"balanceOf","inputs":[{"name":"","type":"address","internalType":"address"}],"outputs":[{"name":"","type":"uint256","internalType":"uint256"}],"stateMutability":"view"},{"type":"function","name":"burn","inputs":[{"name":"to","type":"address","internalType":"address"}],"outputs":[{"name":"amount0","type":"uint256","internalType":"uint256"},{"name":"amount1","type":"uint256","internalType":"uint256"}],"stateMutability":"nonpayable"},{"type":"function","name":"decimals","inputs":[],"outputs":[{"name":"","type":"uint8","internalType":"uint8"}],"stateMutability":"view"},{"type":"function","name":"factory","inputs":[],"outputs":[{"name":"","type":"address","internalType":"address"}],"stateMutability":"view"},{"type":"function","name":"getReserves","inputs":[],"outputs":[{"name":"_reserve0","type":"uint112","internalType":"uint112"},{"name":"_reserve1","type":"uint112","internalType":"uint112"},{"name":"_blockTimestampLast","type":"uint32","internalType":"uint32"}],"stateMutability":"view"},{"type":"function","name":"initialize","inputs":[{"name":"_token0","type":"address","internalType":"address"},{"name":"_token1","type":"address","internalType":"address"}],"outputs":[],"stateMutability":"nonpayable"},{"type":"function","name":"mint","inputs":[{"name":"to","type":"address","internalType":"address"}],"outputs":[{"name":"liquidity","type":"uint256","internalType":"uint256"}],"stateMutability":"nonpayable"},{"type":"function","name":"name","inputs":[],"outputs":[{"name":"","type":"string","internalType":"string"}],"stateMutability":"view"},{"type":"function","name":"nonces","inputs":[{"name":"","type":"address","internalType":"address"}],"outputs":[{"name":"","type":"uint256","internalType":"uint256"}],"stateMutability":"view"},{"type":"function","name":"permit","inputs":[{"name":"owner","type":"address","internalType":"address"},{"name":"spender","type":"address","internalType":"address"},{"name":"value","type":"uint256","internalType":"uint256"},{"name":"deadline","type":"uint256","internalType":"uint256"},{"name":"v","type":"uint8","internalType":"uint8"},{"name":"r","type":"bytes32","internalType":"bytes32"},{"name":"s","type":"bytes32","internalType":"bytes32"}],"outputs":[],"stateMutability":"nonpayable"},{"type":"function","name":"skim","inputs":[{"name":"to","type":"address","internalType":"address"}],"outputs":[],"stateMutability":"nonpayable"},{"type":"function","name":"swap","inputs":[{"name":"amount0Out","type":"uint256","internalType":"uint256"},{"name":"amount1Out","type":"uint256","internalType":"uint256"},{"name":"to","type":"address","internalType":"address"},{"name":"data","type":"bytes","internalType":"bytes"}],"outputs":[],"stateMutability":"nonpayable"},{"type":"function","name":"symbol","inputs":[],"outputs":[{"name":"","type":"string","internalType":"string"}],"stateMutability":"view"},{"type":"function","name":"sync","inputs":[],"outputs":[],"stateMutability":"nonpayable"},{"type":"function","name":"token0","inputs":[],"outputs":[{"name":"","type":"address","internalType":"address"}],"stateMutability":"view"},{"type":"function","name":"token1","inputs":[],"outputs":[{"name":"","type":"address","internalType":"address"}],"stateMutability":"view"},{"type":"function","name":"totalSupply","inputs":[],"outputs":[{"name":"","type":"uint256","internalType":"uint256"}],"stateMutability":"view"},{"type":"function","name":"transfer","inputs":[{"name":"to","type":"address","internalType":"address"},{"name":"amount","type":"uint256","internalType":"uint256"}],"outputs":[{"name":"","type":"bool","internalType":"bool"}],"stateMutability":"nonpayable"},{"type":"function","name":"transferFrom","inputs":[{"name":"from","type":"address","internalType":"address"},{"name":"to","type":"address","internalType":"address"},{"name":"amount","type":"uint256","internalType":"uint256"}],"outputs":[{"name":"","type":"bool","internalType":"bool"}],"stateMutability":"nonpayable"},{"type":"event","name":"Approval","inputs":[{"name":"owner","type":"address","indexed":true,"internalType":"address"},{"name":"spender","type":"address","indexed":true,"internalType":"address"},{"name":"amount","type":"uint256","indexed":false,"internalType":"uint256"}],"anonymous":false},{"type":"event","name":"Burn","inputs":[{"name":"sender","type":"address","indexed":true,"internalType":"address"},{"name":"amount0","type":"uint256","indexed":false,"internalType":"uint256"},{"name":"amount1","type":"uint256","indexed":false,"internalType":"uint256"},{"name":"to","type":"address","indexed":true,"internalType":"address"}],"anonymous":false},{"type":"event","name":"Mint","inputs":[{"name":"sender","type":"address","indexed":true,"internalType":"address"},{"name":"amount0","type":"uint256","indexed":false,"internalType":"uint256"},{"name":"amount1","type":"uint256","indexed":false,"internalType":"uint256"}],"anonymous":false},{"type":"event","name":"Swap","inputs":[{"name":"sender","type":"address","indexed":true,"internalType":"address"},{"name":"amount0In","type":"uint256","indexed":false,"internalType":"uint256"},{"name":"amount1In","type":"uint256","indexed":false,"internalType":"uint256"},{"name":"amount0Out","type":"uint256","indexed":false,"internalType":"uint256"},{"name":"amount1Out","type":"uint256","indexed":false,"internalType":"uint256"},{"name":"to","type":"address","indexed":true,"internalType":"address"}],"anonymous":false},{"type":"event","name":"Sync","inputs":[{"name":"reserve0","type":"uint112","indexed":false,"internalType":"uint112"},{"name":"reserve1","type":"uint112","indexed":false,"internalType":"uint112"}],"anonymous":false},{"type":"event","name":"Transfer","inputs":[{"name":"from","type":"address","indexed":true,"internalType":"address"},{"name":"to","type":"address","indexed":true,"internalType":"address"},{"name":"amount","type":"uint256","indexed":false,"internalType":"uint256"}],"anonymous":false}],"bytecode":{"object":"0x60e0604090808252346200044157620000188162000446565b600e815260206d26b4b7349029bbb0b8102830b4b960911b81830152825191620000428362000446565b600783526604d494e492d4c560cc1b8284015280516001600160401b0394908581116200042b576000908062000079835462000462565b94601f95868111620003da575b5086908683116001146200037257849262000366575b50508160011b916000199060031b1c19161781555b8451868111620003525780600196620000cb885462000462565b868111620002ff575b5086908683116001146200029b5784926200028f575b5050600019600383901b1c191690861b1785555b60126080524660a05281519281825491620001198362000462565b80875287870193888a821691826000146200027457505060011462000238575b5085601f1992030116840193808510888611176200022457848452519020938301937f8b73c3c69bb8fe3d512ecc4cf759cc79239f7b179b0ffacaa9a75d522b39400f8552828401527fc89efdaa54c0f20c7adf612882df0950f5a951637e0307cdcb4c672f298b8bc660608401524660808401523060a084015260a0835260c08301958387109087111762000210575084905251902060c052600a55600680546001600160a01b03191633179055611d349081620004a082396080518161115a015260a05181611a6a015260c05181611a910152f35b634e487b7160e01b81526041600452602490fd5b634e487b7160e01b83526041600452602483fd5b87919250848052818520908986925b8284106200025d57505050860101903862000139565b8054848b018601528a94909301928b910162000247565b915092935060ff19168452151560051b860101903862000139565b015190503880620000ea565b8885528785208994509190601f198416865b8a828210620002e85750508411620002ce575b505050811b018555620000fe565b015160001960f88460031b161c19169055388080620002c0565b8385015186558c97909501949384019301620002ad565b9091508784528684208680850160051c82019289861062000348575b918a91869594930160051c01915b82811062000339575050620000d4565b8681558594508a910162000329565b925081926200031b565b634e487b7160e01b82526041600452602482fd5b0151905038806200009c565b8480528785209250601f198416855b89828210620003c3575050908460019594939210620003a9575b505050811b018155620000b1565b015160001960f88460031b161c191690553880806200039b565b600185968293968601518155019501930162000381565b9091508380528684208680850160051c82019289861062000421575b9085949392910160051c01905b81811062000412575062000086565b85815584935060010162000403565b92508192620003f6565b634e487b7160e01b600052604160045260246000fd5b600080fd5b604081019081106001600160401b038211176200042b57604052565b90600182811c9216801562000494575b60208310146200047e57565b634e487b7160e01b600052602260045260246000fd5b91607f16916200047256fe6080604052600436101561001257600080fd5b60003560e01c8063022c0d9f1461140e57806306fdde03146113695780630902f1ac14611310578063095ea7b3146112975780630dfe16811461126e57806318160ddd1461125057806323b872dd1461117e578063313ce567146111405780633644e5151461111d578063485cc955146110855780636a62784214610c2f57806370a0823114610bf55780637ecebe0014610bbb57806389afcb441461084957806395d89b4114610767578063a9059cbb146106ed578063ba9a7a56146106d0578063bc25cf7714610599578063c45a015514610570578063d21220a714610547578063d505accf14610314578063dd62ed3e146102c35763fff6cae91461011957600080fd5b3461027a57600036600319011261027a576101386001600a5414611a0a565b6000600a556007546040516370a0823160e01b808252306004830152916020916001600160a01b039183908290602490829086165afa918215610286578391600093610292575b50600854169360246040518096819382523060048301525afa92831561028657600093610252575b506001600160701b03908181111580610248575b15610212579181600080516020611cdf833981519152949260409416928363ffffffff60e01b4260e01b16916001600160701b0360701b9060701b16171780600955845193845260701c1690820152a16001600a55005b60405162461bcd60e51b815260048101849052600e60248201526d506169723a204f564552464c4f5760901b6044820152606490fd5b50818411156101bb565b9092508181813d831161027f575b61026a818361199f565b8101031261027a575191386101a7565b600080fd5b503d610260565b6040513d6000823e3d90fd5b8281939294503d83116102bc575b6102aa818361199f565b8101031261027a57829051913861017f565b503d6102a0565b3461027a57604036600319011261027a576102dc611939565b6102e461194f565b9060018060a01b038091166000526004602052604060002091166000526020526020604060002054604051908152f35b3461027a5760e036600319011261027a5761032d611939565b61033561194f565b90604435606435906084359260ff841680940361027a574283106105025761035b611a65565b9360018060a01b0380921694856000526020946005865260406000209788549860018a0190556040519185888401927f6e71edae12b1b97f4d1f60370fef10105fa2faae0126114a169c64845d6126c984528a604086015216998a606085015287608085015260a084015260c083015260c0825260e082019167ffffffffffffffff91818410838511176104ec57836040528151902061010082019461190160f01b865261010283015261012282015260428352610160810191838310908311176104ec57879460009460809484604052519020835261018082015260a4356101a08201526101c060c43591015282805260015afa156102865760005116801515806104e3575b156104ad57907f8c5be1e5ebec7d5bd14f71427d1e84f3dd0314c0f7b2291e5b200ac8c7c3b925929160005260048252604060002085600052825280604060002055604051908152a3005b60405162461bcd60e51b815260048101849052600e60248201526d24a72b20a624a22fa9a4a3a722a960911b6044820152606490fd5b50838114610462565b634e487b7160e01b600052604160045260246000fd5b60405162461bcd60e51b815260206004820152601760248201527f5045524d49545f444541444c494e455f455850495245440000000000000000006044820152606490fd5b3461027a57600036600319011261027a576008546040516001600160a01b039091168152602090f35b3461027a57600036600319011261027a576006546040516001600160a01b039091168152602090f35b3461027a5760208060031936011261027a576105b3611939565b906105c26001600a5414611a0a565b6000600a556007546008546040516370a0823160e01b80825230600483015290946001600160a01b039283169490939092168286602481845afa9586156102865760009661069f575b5061062e90846106286001600160701b0398896009541690611a45565b91611c2c565b6040519081523060048201528181602481875afa9182156102865760009261066f575b5050610628906106689460095460701c1690611a45565b6001600a55005b90809250813d8311610698575b610686818361199f565b8101031261027a575183610628610651565b503d61067c565b9095508281813d83116106c9575b6106b7818361199f565b8101031261027a57519461062e61060b565b503d6106ad565b3461027a57600036600319011261027a5760206040516103e88152f35b3461027a57604036600319011261027a57610706611939565b602435903360005260036020526040600020610723838254611a45565b905560018060a01b0316908160005260036020526040600020818154019055604051908152600080516020611cbf83398151915260203392a3602060405160018152f35b3461027a57600036600319011261027a5760405160006001805461078a81611965565b808552916020916001811690811561081f57506001146107c5575b6107c1856107b58187038261199f565b604051918291826119c1565b0390f35b6001600090815293507fb10e2d527612073b26eecdfd717e6a320cf44b4afac2b0732d9fcbe2b7fa0cf65b83851061080c575050505081016020016107b5826107c16107a5565b80548686018401529382019381016107f0565b8695506107c1969350602092506107b594915060ff191682840152151560051b82010192936107a5565b3461027a5760208060031936011261027a57610863611939565b906108726001600a5414611a0a565b6000600a5560018060a01b03806007541691816008541693604051926370a0823160e01b95868552306004860152602496848689818a5afa95861561028657600096610b8c575b506040519681885230600489015285888a81865afa97881561028657600098610b5d575b5030600052600386526109156108f96040600020549889611a52565b6109106109096002548093611c0c565b9a8a611a52565b611c0c565b9688151580610b54575b15610b04578991600088923082526003845260408220610940828254611a45565b90558060025403600255604051908152600080516020611cbf833981519152843092a361096e8a8883611c2c565b610979898887611c2c565b604051928380928682523060048301525afa918215610286578691600093610ad3575b50896040518095819382523060048301525afa91821561028657600092610aa4575b506001600160701b03908181111580610a9a575b15610a65576040985091818992600080516020611cdf8339815191529416918263ffffffff60e01b4260e01b16916001600160701b0360701b9060701b16171780600955835192835260701c1686820152a1855191858352848484015216907fdccd412f0b1252819cb1fd330b93224ca42612892bb3f4f789976e6d81936496863392a36001600a558351928352820152f35b60405162461bcd60e51b815260048101879052600e818b01526d506169723a204f564552464c4f5760901b6044820152606490fd5b50818311156109d2565b9091508481813d8311610acc575b610abc818361199f565b8101031261027a575190886109be565b503d610ab2565b8281939294503d8311610afd575b610aeb818361199f565b8101031261027a57859051918a61099c565b503d610ae1565b60405162461bcd60e51b8152600481018890526023818c01527f506169723a20494e53554646494349454e545f4c49515549444954595f42555260448201526213915160ea1b6064820152608490fd5b5087151561091f565b9097508581813d8311610b85575b610b75818361199f565b8101031261027a575196896108dd565b503d610b6b565b9095508481813d8311610bb4575b610ba4818361199f565b8101031261027a575194886108b9565b503d610b9a565b3461027a57602036600319011261027a576001600160a01b03610bdc611939565b1660005260056020526020604060002054604051908152f35b3461027a57602036600319011261027a576001600160a01b03610c16611939565b1660005260036020526020604060002054604051908152f35b3461027a57602036600319011261027a57610c48611939565b610c566001600a5414611a0a565b6000600a55610c7a6009546001600160701b0391828216928260701c169160e01c90565b506007546040516370a0823160e01b808252306004830152909490939091602090869060249082906001600160a01b03165afa94851561028657600095611051575b50600854604051948552306004860152602090859060249082906001600160a01b03165afa93841561028657600094611016575b506001600160701b0316926001600160701b03610d0d8587611a45565b931691610d1a8383611a45565b92600254958615600014610fe0575050610d348385611a52565b60b581600160881b811015610fc9575b80690100000000000000000062010000921015610fbc575b65010000000000811015610faf575b6301000000811015610fa2575b010260121c8082040160011c8082040160011c8082040160011c8082040160011c8082040160011c8082040160011c8082040160011c808092041090036103e7198101908111610f3b57946103e881018111610f3b576103e80160025560008052600360205260406000206103e88154019055600080600080516020611cbf83398151915260206040516103e88152a35b8415610f5157600254858101809111610f3b576002556001600160a01b0316600081815260036020908152604080832080548901905551878152600080516020611cbf8339815191529190a36001600160701b0385111580610f2a575b15610ef4576040600080516020611cdf833981519152916001600160701b038060209816918263ffffffff60e01b4260e01b16918360701b9060701b16171780600955835192835260701c1687820152a1604051918252838201527f4c209b5fc8ad50758f13e2e1088ba56a560dff690a1c6fef26394f4c03821c4f60403392a26001600a55604051908152f35b60405162461bcd60e51b815260206004820152600e60248201526d506169723a204f564552464c4f5760901b6044820152606490fd5b506001600160701b03811115610e66565b634e487b7160e01b600052601160045260246000fd5b60405162461bcd60e51b815260206004820152602360248201527f506169723a20494e53554646494349454e545f4c49515549444954595f4d494e60448201526215115160ea1b6064820152608490fd5b60101c9160081b91610d78565b60201c9160101b91610d6b565b60401c9160201b91610d5c565b5068b500000000000000009050608082901c610d44565b90610910610ff8610fff936109108a8a9b979b611a52565b9386611a52565b8082101561100f57505b93610e09565b9050611009565b9093506020813d602011611049575b816110326020938361199f565b8101031261027a5751926001600160701b03610cf0565b3d9150611025565b9094506020813d60201161107d575b8161106d6020938361199f565b8101031261027a57519385610cbc565b3d9150611060565b3461027a57604036600319011261027a5761109e611939565b6110a661194f565b6006546001600160a01b039190821633036110e657816bffffffffffffffffffffffff60a01b931683600754161760075516906008541617600855600080f35b60405162461bcd60e51b815260206004820152600f60248201526e2830b4b91d102327a92124a22222a760891b6044820152606490fd5b3461027a57600036600319011261027a576020611138611a65565b604051908152f35b3461027a57600036600319011261027a57602060405160ff7f0000000000000000000000000000000000000000000000000000000000000000168152f35b3461027a57606036600319011261027a57611197611939565b61119f61194f565b60443590600080516020611cbf83398151915260018060a01b0380941691826000526020948591600483526040600020336000528352604060002054866000198203611227575b505084600052600383526040600020611200878254611a45565b9055169384600052600382526040600020818154019055604051908152a360405160018152f35b61123091611a45565b8560005260048452604060002033600052845260406000205587866111e6565b3461027a57600036600319011261027a576020600254604051908152f35b3461027a57600036600319011261027a576007546040516001600160a01b039091168152602090f35b3461027a57604036600319011261027a576112b0611939565b60243533600052600460205260406000209160018060a01b03169182600052602052806040600020556040519081527f8c5be1e5ebec7d5bd14f71427d1e84f3dd0314c0f7b2291e5b200ac8c7c3b92560203392a3602060405160018152f35b3461027a57600036600319011261027a57606063ffffffff6113476009546001600160701b0391828216928260701c169160e01c90565b909291604051936001600160701b038092168552166020840152166040820152f35b3461027a57600036600319011261027a576040516000805461138a81611965565b8084529060209060019081811690811561081f57506001146113b6576107c1856107b58187038261199f565b600080805293507f290decd9548b62a8d60345a988386fc84ba6bc95484008f6362f93160ef3e5635b8385106113fb575050505081016020016107b5826107c16107a5565b80548686018401529382019381016113df565b3461027a57608036600319011261027a576001600160a01b03604435808216900361027a5760643567ffffffffffffffff80821161027a573660238301121561027a57816004013590811161027a573691016024011161027a576114766001600a5414611a0a565b6000600a5560043515908115809261192e575b156118ea576114ad6009546001600160701b0391828216928260701c169160e01c90565b50926001600160701b03821660043510806118d6575b15611891578260075416836008541691818560443516141580611883575b1561184b57611837575b602435611823575b604051906020826024816370a0823160e01b948582523060048301525afa918215610286576000926117ee575b5060209060246040518095819382523060048301525afa918215610286576000926117ba575b5061155c6004356001600160701b038516611a45565b8111156117b25761158161157b6004356001600160701b038616611a45565b82611a45565b945b6115986024356001600160701b038316611a45565b8311156117aa576115bd6115b76024356001600160701b038416611a45565b84611a45565b935b86151587156117a1575b1561175c57826103e88102046103e81483151715610f3b576003870287810460031488151715610f3b57611601906103e88502611a45565b906103e88502918583046103e81486151715610f3b57600387029287840460031488151715610f3b5761164a6001600160701b0392611644611653968594611a45565b90611a52565b94169116611a52565b90620f424091828102928184041490151715610f3b571061172d576001600160701b038111158061171c575b15610ef457600080516020611cdf833981519152916001600160701b038060409316918263ffffffff60e01b4260e01b16918360701b9060701b16171780600955835192835260701c166020820152a160405192835260208301526004356040830152602435606083015260443516907fd78ad95fa46c994b6551d0da85fc275fe613ce37657fb8d5e3d130840159d82260803392a36001600a55005b506001600160701b0382111561167f565b60405162461bcd60e51b8152602060048201526007602482015266506169723a204b60c81b6044820152606490fd5b60405162461bcd60e51b815260206004820152601f60248201527f506169723a20494e53554646494349454e545f494e5055545f414d4f554e54006044820152606490fd5b508415156115c9565b6000936115bf565b600094611583565b9091506020813d6020116117e6575b816117d66020938361199f565b8101031261027a57519085611546565b3d91506117c9565b9091506020813d60201161181b575b8161180a6020938361199f565b8101031261027a5751906020611520565b3d91506117fd565b61183260243560443584611c2c565b6114f3565b61184660043560443583611c2c565b6114eb565b60405162461bcd60e51b815260206004820152601060248201526f506169723a20494e56414c49445f544f60801b6044820152606490fd5b5082856044351614156114e1565b60405162461bcd60e51b815260206004820152601c60248201527f506169723a20494e53554646494349454e545f4c4951554944495459000000006044820152606490fd5b506001600160701b038416602435106114c3565b606460405162461bcd60e51b815260206004820152602060248201527f506169723a20494e53554646494349454e545f4f55545055545f414d4f554e546044820152fd5b506024351515611489565b600435906001600160a01b038216820361027a57565b602435906001600160a01b038216820361027a57565b90600182811c92168015611995575b602083101461197f57565b634e487b7160e01b600052602260045260246000fd5b91607f1691611974565b90601f8019910116810190811067ffffffffffffffff8211176104ec57604052565b6020808252825181830181905290939260005b8281106119f657505060409293506000838284010152601f8019910116010190565b8181018601518482016040015285016119d4565b15611a1157565b60405162461bcd60e51b815260206004820152600c60248201526b14185a5c8e881313d0d2d15160a21b6044820152606490fd5b91908203918211610f3b57565b81810292918115918404141715610f3b57565b6000467f000000000000000000000000000000000000000000000000000000000000000003611ab357507f000000000000000000000000000000000000000000000000000000000000000090565b60405181548291611ac382611965565b808252816020948582019460019087600182169182600014611bee575050600114611b95575b50611af69250038261199f565b51902091604051918201927f8b73c3c69bb8fe3d512ecc4cf759cc79239f7b179b0ffacaa9a75d522b39400f845260408301527fc89efdaa54c0f20c7adf612882df0950f5a951637e0307cdcb4c672f298b8bc660608301524660808301523060a083015260a0825260c082019082821067ffffffffffffffff831117611b81575060405251902090565b634e487b7160e01b81526041600452602490fd5b87805286915087907f290decd9548b62a8d60345a988386fc84ba6bc95484008f6362f93160ef3e5635b858310611bd6575050611af6935082010138611ae9565b80548388018501528694508893909201918101611bbf565b60ff19168852611af695151560051b8501019250389150611ae99050565b8115611c16570490565b634e487b7160e01b600052601260045260246000fd5b60405163a9059cbb60e01b81526001600160a01b039092166004830152602482019290925260209060009060449082855af19081601f3d11600160005114161516611cb1575b5015611c7a57565b60405162461bcd60e51b815260206004820152600f60248201526e1514905394d1915497d19052531151608a1b6044820152606490fd5b3b153d1715905038611c7256feddf252ad1be2c89b69c2b068fc378daa952ba7f163c4a11628f55a4df523b3ef1c411e9a96e071241c2f21f7726b17ae89e3cab4c78be50e062b03a9fffbbad1a2646970667358221220b54e4a58a8198964f687ad4591a484315243efb0df6217ffdfb61e696ed3cd3164736f6c63430008180033","linkReferences":{}},"methodIdentifiers":{"DOMAIN_SEPARATOR()":"3644e515","MINIMUM_LIQUIDITY()":"ba9a7a56","allowance(address,address)":"dd62ed3e","approve(address,uint256)":"095ea7b3","balanceOf(address)":"70a08231","burn(address)":"89afcb44","decimals()":"313ce567","factory()":"c45a0155","getReserves()":"0902f1ac","initialize(address,address)":"485cc955","mint(address)":"6a627842","name()":"06fdde03","nonces(address)":"7ecebe00","permit(address,address,uint256,uint256,uint8,bytes32,bytes32)":"d505accf","skim(address)":"bc25cf77","swap(uint256,uint256,address,bytes)":"022c0d9f","symbol()":"95d89b41","sync()":"fff6cae9","token0()":"0dfe1681","token1()":"d21220a7","totalSupply()":"18160ddd","transfer(address,uint256)":"a9059cbb","transferFrom(address,address,uint256)":"23b872dd"},"id":25}